{
  "contractName": "DocumentVerifier",
  "abi": [
    {
      "inputs": [],
      "stateMutability": "nonpayable",
      "type": "constructor"
    },
    {
      "anonymous": false,
      "inputs": [
        {
          "indexed": true,
          "internalType": "address",
          "name": "student",
          "type": "address"
        },
        {
          "indexed": false,
          "internalType": "string",
          "name": "name",
          "type": "string"
        },
        {
          "indexed": false,
          "internalType": "string",
          "name": "documentHash",
          "type": "string"
        }
      ],
      "name": "DocumentIssued",
      "type": "event"
    },
    {
      "inputs": [],
      "name": "admin",
      "outputs": [
        {
          "internalType": "address",
          "name": "",
          "type": "address"
        }
      ],
      "stateMutability": "view",
      "type": "function",
      "constant": true
    },
    {
      "inputs": [
        {
          "internalType": "uint256",
          "name": "",
          "type": "uint256"
        }
      ],
      "name": "documents",
      "outputs": [
        {
          "internalType": "string",
          "name": "name",
          "type": "string"
        },
        {
          "internalType": "string",
          "name": "documentHash",
          "type": "string"
        },
        {
          "internalType": "address",
          "name": "student",
          "type": "address"
        }
      ],
      "stateMutability": "view",
      "type": "function",
      "constant": true
    },
    {
      "inputs": [
        {
          "internalType": "address",
          "name": "",
          "type": "address"
        },
        {
          "internalType": "uint256",
          "name": "",
          "type": "uint256"
        }
      ],
      "name": "studentDocuments",
      "outputs": [
        {
          "internalType": "uint256",
          "name": "",
          "type": "uint256"
        }
      ],
      "stateMutability": "view",
      "type": "function",
      "constant": true
    },
    {
      "inputs": [
        {
          "internalType": "address",
          "name": "_student",
          "type": "address"
        },
        {
          "internalType": "string",
          "name": "_name",
          "type": "string"
        },
        {
          "internalType": "string",
          "name": "_documentHash",
          "type": "string"
        }
      ],
      "name": "issueDocument",
      "outputs": [],
      "stateMutability": "nonpayable",
      "type": "function"
    },
    {
      "inputs": [
        {
          "internalType": "address",
          "name": "_student",
          "type": "address"
        }
      ],
      "name": "getStudentDocuments",
      "outputs": [
        {
          "components": [
            {
              "internalType": "string",
              "name": "name",
              "type": "string"
            },
            {
              "internalType": "string",
              "name": "documentHash",
              "type": "string"
            },
            {
              "internalType": "address",
              "name": "student",
              "type": "address"
            }
          ],
          "internalType": "struct DocumentVerifier.Document[]",
          "name": "",
          "type": "tuple[]"
        }
      ],
      "stateMutability": "view",
      "type": "function",
      "constant": true
    },
    {
      "inputs": [],
      "name": "getAllDocuments",
      "outputs": [
        {
          "components": [
            {
              "internalType": "string",
              "name": "name",
              "type": "string"
            },
            {
              "internalType": "string",
              "name": "documentHash",
              "type": "string"
            },
            {
              "internalType": "address",
              "name": "student",
              "type": "address"
            }
          ],
          "internalType": "struct DocumentVerifier.Document[]",
          "name": "",
          "type": "tuple[]"
        }
      ],
      "stateMutability": "view",
      "type": "function",
      "constant": true
    }
  ],
  "bytecode": "0x608060405234801561000f575f80fd5b50335f806101000a81548173ffffffffffffffffffffffffffffffffffffffff021916908373ffffffffffffffffffffffffffffffffffffffff1602179055506114a58061005c5f395ff3fe608060405234801561000f575f80fd5b5060043610610060575f3560e01c80630de35f55146100645780631d848ec8146100805780633343b626146100b05780639fa5f50b146100e0578063c2ed2b05146100fe578063f851a44014610130575b5f80fd5b61007e60048036038101906100799190610c2d565b61014e565b005b61009a60048036038101906100959190610cb5565b61036c565b6040516100a79190610e78565b60405180910390f35b6100ca60048036038101906100c59190610ecb565b610645565b6040516100d79190610f18565b60405180910390f35b6100e8610670565b6040516100f59190610e78565b60405180910390f35b61011860048036038101906101139190610f31565b6108cd565b60405161012793929190610fb3565b60405180910390f35b610138610a2d565b6040516101459190610ff6565b60405180910390f35b5f8054906101000a900473ffffffffffffffffffffffffffffffffffffffff1673ffffffffffffffffffffffffffffffffffffffff163373ffffffffffffffffffffffffffffffffffffffff16146101db576040517f08c379a00000000000000000000000000000000000000000000000000000000081526004016101d29061107f565b60405180910390fd5b600160405180606001604052808481526020018381526020018573ffffffffffffffffffffffffffffffffffffffff16815250908060018154018082558091505060019003905f5260205f2090600302015f909190919091505f820151815f0190816102479190611297565b50602082015181600101908161025d9190611297565b506040820151816002015f6101000a81548173ffffffffffffffffffffffffffffffffffffffff021916908373ffffffffffffffffffffffffffffffffffffffff160217905550505060025f8473ffffffffffffffffffffffffffffffffffffffff1673ffffffffffffffffffffffffffffffffffffffff1681526020019081526020015f20600180805490506102f49190611393565b908060018154018082558091505060019003905f5260205f20015f90919091909150558273ffffffffffffffffffffffffffffffffffffffff167feaa562e71031026445d75adbc1344e45c7ec0f423b37ec86a1004403bb995ed7838360405161035f9291906113c6565b60405180910390a2505050565b60605f60025f8473ffffffffffffffffffffffffffffffffffffffff1673ffffffffffffffffffffffffffffffffffffffff1681526020019081526020015f208054905090505f8167ffffffffffffffff8111156103cd576103cc610b09565b5b60405190808252806020026020018201604052801561040657816020015b6103f3610a50565b8152602001906001900390816103eb5790505b5090505f5b8281101561063a57600160025f8773ffffffffffffffffffffffffffffffffffffffff1673ffffffffffffffffffffffffffffffffffffffff1681526020019081526020015f208281548110610464576104636113fb565b5b905f5260205f2001548154811061047e5761047d6113fb565b5b905f5260205f2090600302016040518060600160405290815f820180546104a4906110ca565b80601f01602080910402602001604051908101604052809291908181526020018280546104d0906110ca565b801561051b5780601f106104f25761010080835404028352916020019161051b565b820191905f5260205f20905b8154815290600101906020018083116104fe57829003601f168201915b50505050508152602001600182018054610534906110ca565b80601f0160208091040260200160405190810160405280929190818152602001828054610560906110ca565b80156105ab5780601f10610582576101008083540402835291602001916105ab565b820191905f5260205f20905b81548152906001019060200180831161058e57829003601f168201915b50505050508152602001600282015f9054906101000a900473ffffffffffffffffffffffffffffffffffffffff1673ffffffffffffffffffffffffffffffffffffffff1673ffffffffffffffffffffffffffffffffffffffff168152505082828151811061061c5761061b6113fb565b5b6020026020010181905250808061063290611428565b91505061040b565b508092505050919050565b6002602052815f5260405f20818154811061065e575f80fd5b905f5260205f20015f91509150505481565b60605f8054906101000a900473ffffffffffffffffffffffffffffffffffffffff1673ffffffffffffffffffffffffffffffffffffffff163373ffffffffffffffffffffffffffffffffffffffff16146106ff576040517f08c379a00000000000000000000000000000000000000000000000000000000081526004016106f69061107f565b60405180910390fd5b6001805480602002602001604051908101604052809291908181526020015f905b828210156108c4578382905f5260205f2090600302016040518060600160405290815f82018054610750906110ca565b80601f016020809104026020016040519081016040528092919081815260200182805461077c906110ca565b80156107c75780601f1061079e576101008083540402835291602001916107c7565b820191905f5260205f20905b8154815290600101906020018083116107aa57829003601f168201915b505050505081526020016001820180546107e0906110ca565b80601f016020809104026020016040519081016040528092919081815260200182805461080c906110ca565b80156108575780601f1061082e57610100808354040283529160200191610857565b820191905f5260205f20905b81548152906001019060200180831161083a57829003601f168201915b50505050508152602001600282015f9054906101000a900473ffffffffffffffffffffffffffffffffffffffff1673ffffffffffffffffffffffffffffffffffffffff1673ffffffffffffffffffffffffffffffffffffffff168152505081526020019060010190610720565b50505050905090565b600181815481106108dc575f80fd5b905f5260205f2090600302015f91509050805f0180546108fb906110ca565b80601f0160208091040260200160405190810160405280929190818152602001828054610927906110ca565b80156109725780601f1061094957610100808354040283529160200191610972565b820191905f5260205f20905b81548152906001019060200180831161095557829003601f168201915b505050505090806001018054610987906110ca565b80601f01602080910402602001604051908101604052809291908181526020018280546109b3906110ca565b80156109fe5780601f106109d5576101008083540402835291602001916109fe565b820191905f5260205f20905b8154815290600101906020018083116109e157829003601f168201915b505050505090806002015f9054906101000a900473ffffffffffffffffffffffffffffffffffffffff16905083565b5f8054906101000a900473ffffffffffffffffffffffffffffffffffffffff1681565b604051806060016040528060608152602001606081526020015f73ffffffffffffffffffffffffffffffffffffffff1681525090565b5f604051905090565b5f80fd5b5f80fd5b5f73ffffffffffffffffffffffffffffffffffffffff82169050919050565b5f610ac082610a97565b9050919050565b610ad081610ab6565b8114610ada575f80fd5b50565b5f81359050610aeb81610ac7565b92915050565b5f80fd5b5f80fd5b5f601f19601f8301169050919050565b7f4e487b71000000000000000000000000000000000000000000000000000000005f52604160045260245ffd5b610b3f82610af9565b810181811067ffffffffffffffff82111715610b5e57610b5d610b09565b5b80604052505050565b5f610b70610a86565b9050610b7c8282610b36565b919050565b5f67ffffffffffffffff821115610b9b57610b9a610b09565b5b610ba482610af9565b9050602081019050919050565b828183375f83830152505050565b5f610bd1610bcc84610b81565b610b67565b905082815260208101848484011115610bed57610bec610af5565b5b610bf8848285610bb1565b509392505050565b5f82601f830112610c1457610c13610af1565b5b8135610c24848260208601610bbf565b91505092915050565b5f805f60608486031215610c4457610c43610a8f565b5b5f610c5186828701610add565b935050602084013567ffffffffffffffff811115610c7257610c71610a93565b5b610c7e86828701610c00565b925050604084013567ffffffffffffffff811115610c9f57610c9e610a93565b5b610cab86828701610c00565b9150509250925092565b5f60208284031215610cca57610cc9610a8f565b5b5f610cd784828501610add565b91505092915050565b5f81519050919050565b5f82825260208201905092915050565b5f819050602082019050919050565b5f81519050919050565b5f82825260208201905092915050565b5f5b83811015610d40578082015181840152602081019050610d25565b5f8484015250505050565b5f610d5582610d09565b610d5f8185610d13565b9350610d6f818560208601610d23565b610d7881610af9565b840191505092915050565b610d8c81610ab6565b82525050565b5f606083015f8301518482035f860152610dac8282610d4b565b91505060208301518482036020860152610dc68282610d4b565b9150506040830151610ddb6040860182610d83565b508091505092915050565b5f610df18383610d92565b905092915050565b5f602082019050919050565b5f610e0f82610ce0565b610e198185610cea565b935083602082028501610e2b85610cfa565b805f5b85811015610e665784840389528151610e478582610de6565b9450610e5283610df9565b925060208a01995050600181019050610e2e565b50829750879550505050505092915050565b5f6020820190508181035f830152610e908184610e05565b905092915050565b5f819050919050565b610eaa81610e98565b8114610eb4575f80fd5b50565b5f81359050610ec581610ea1565b92915050565b5f8060408385031215610ee157610ee0610a8f565b5b5f610eee85828601610add565b9250506020610eff85828601610eb7565b9150509250929050565b610f1281610e98565b82525050565b5f602082019050610f2b5f830184610f09565b92915050565b5f60208284031215610f4657610f45610a8f565b5b5f610f5384828501610eb7565b91505092915050565b5f82825260208201905092915050565b5f610f7682610d09565b610f808185610f5c565b9350610f90818560208601610d23565b610f9981610af9565b840191505092915050565b610fad81610ab6565b82525050565b5f6060820190508181035f830152610fcb8186610f6c565b90508181036020830152610fdf8185610f6c565b9050610fee6040830184610fa4565b949350505050565b5f6020820190506110095f830184610fa4565b92915050565b7f4f6e6c792061646d696e2063616e20706572666f726d207468697320616374695f8201527f6f6e000000000000000000000000000000000000000000000000000000000000602082015250565b5f611069602283610f5c565b91506110748261100f565b604082019050919050565b5f6020820190508181035f8301526110968161105d565b9050919050565b7f4e487b71000000000000000000000000000000000000000000000000000000005f52602260045260245ffd5b5f60028204905060018216806110e157607f821691505b6020821081036110f4576110f361109d565b5b50919050565b5f819050815f5260205f209050919050565b5f6020601f8301049050919050565b5f82821b905092915050565b5f600883026111567fffffffffffffffffffffffffffffffffffffffffffffffffffffffffffffffff8261111b565b611160868361111b565b95508019841693508086168417925050509392505050565b5f819050919050565b5f61119b61119661119184610e98565b611178565b610e98565b9050919050565b5f819050919050565b6111b483611181565b6111c86111c0826111a2565b848454611127565b825550505050565b5f90565b6111dc6111d0565b6111e78184846111ab565b505050565b5b8181101561120a576111ff5f826111d4565b6001810190506111ed565b5050565b601f82111561124f57611220816110fa565b6112298461110c565b81016020851015611238578190505b61124c6112448561110c565b8301826111ec565b50505b505050565b5f82821c905092915050565b5f61126f5f1984600802611254565b1980831691505092915050565b5f6112878383611260565b9150826002028217905092915050565b6112a082610d09565b67ffffffffffffffff8111156112b9576112b8610b09565b5b6112c382546110ca565b6112ce82828561120e565b5f60209050601f8311600181146112ff575f84156112ed578287015190505b6112f7858261127c565b86555061135e565b601f19841661130d866110fa565b5f5b828110156113345784890151825560018201915060208501945060208101905061130f565b86831015611351578489015161134d601f891682611260565b8355505b6001600288020188555050505b505050505050565b7f4e487b71000000000000000000000000000000000000000000000000000000005f52601160045260245ffd5b5f61139d82610e98565b91506113a883610e98565b92508282039050818111156113c0576113bf611366565b5b92915050565b5f6040820190508181035f8301526113de8185610f6c565b905081810360208301526113f28184610f6c565b90509392505050565b7f4e487b71000000000000000000000000000000000000000000000000000000005f52603260045260245ffd5b5f61143282610e98565b91507fffffffffffffffffffffffffffffffffffffffffffffffffffffffffffffffff820361146457611463611366565b5b60018201905091905056fea26469706673582212203933a3c5809bc62a8b6ee5b12028232d18fd7ef3129d51bbae3780dad652a8d864736f6c63430008150033",
  "immutableReferences": {},
  "source": "// SPDX-License-Identifier: MIT\r\npragma solidity ^0.8.0;\r\n\r\ncontract DocumentVerifier {\r\n    address public admin;\r\n\r\n    struct Document {\r\n        string name;\r\n        string documentHash;\r\n        address student;\r\n    }\r\n\r\n    Document[] public documents;\r\n    mapping(address => uint[]) public studentDocuments;\r\n\r\n    event DocumentIssued(address indexed student, string name, string documentHash);\r\n\r\n    modifier onlyAdmin() {\r\n        require(msg.sender == admin, \"Only admin can perform this action\");\r\n        _;\r\n    }\r\n\r\n    constructor() {\r\n        admin = msg.sender;\r\n    }\r\n\r\n    function issueDocument(address _student, string memory _name, string memory _documentHash) public onlyAdmin {\r\n        documents.push(Document(_name, _documentHash, _student));\r\n        studentDocuments[_student].push(documents.length - 1);\r\n        emit DocumentIssued(_student, _name, _documentHash);\r\n    }\r\n\r\n    function getStudentDocuments(address _student) public view returns (Document[] memory) {\r\n        uint count = studentDocuments[_student].length;\r\n        Document[] memory result = new Document[](count);\r\n        for (uint i = 0; i < count; i++) {\r\n            result[i] = documents[studentDocuments[_student][i]];\r\n        }\r\n        return result;\r\n    }\r\n\r\n    function getAllDocuments() public view onlyAdmin returns (Document[] memory) {\r\n        return documents;\r\n    }\r\n}\r\n",
  "sourcePath": "C:\\Users\\75in\\OneDrive\\Desktop\\Document\\contracts\\verifier.sol",
  "compiler": {
    "name": "solc",
    "version": "0.8.21+commit.d9974bed.Emscripten.clang"
  },
  "schemaVersion": "3.4.16",
  "updatedAt": "2025-02-28T04:50:15.824Z",
  "networkType": "ethereum",
  "devdoc": {
    "kind": "dev",
    "methods": {},
    "version": 1
  },
  "userdoc": {
    "kind": "user",
    "methods": {},
    "version": 1
  }
}